{
  "contractName": "GameScore",
  "abi": [
    {
      "constant": false,
      "inputs": [
        {
          "name": "name",
          "type": "string"
        }
      ],
      "name": "getGameScore",
      "outputs": [
        {
          "name": "",
          "type": "int256"
        }
      ],
      "payable": false,
      "stateMutability": "nonpayable",
      "type": "function"
    }
  ],
  "bytecode": "0x6060604052341561000f57600080fd5b6101fc8061001e6000396000f300606060405260043610610041576000357c0100000000000000000000000000000000000000000000000000000000900463ffffffff1680636531961c14610046575b600080fd5b341561005157600080fd5b6100a1600480803590602001908201803590602001908080601f016020809104026020016040519081016040528093929190818152602001838380828437820191505050505050919050506100b7565b6040518082815260200191505060405180910390f35b60008073fb88de099e13c3ed21f80a7a1e49f8caecf10df690508073ffffffffffffffffffffffffffffffffffffffff166316020273846000604051602001526040518263ffffffff167c01000000000000000000000000000000000000000000000000000000000281526004018080602001828103825283818151815260200191508051906020019080838360005b83811015610162578082015181840152602081019050610147565b50505050905090810190601f16801561018f5780820380516001836020036101000a031916815260200191505b5092505050602060405180830381600087803b15156101ad57600080fd5b6102c65a03f115156101be57600080fd5b505050604051805190509150509190505600a165627a7a723058209ba554a9d617db2b0a7f7aae04c8602aa4be090f0ae04509b2413f0c7bcb0bdd0029",
  "source": "pragma solidity ^0.4.4;\r\ncontract IScoreStore {\r\n    function getScore(string name) returns (int);\r\n}\r\ncontract GameScore {\r\n    function getGameScore(string name) returns (int) {\r\n        IScoreStore scoreStore = IScoreStore(0xFB88dE099e13c3ED21F80a7a1E49f8CAEcF10df6);\r\n        return scoreStore.getScore(name);\r\n    }\r\n}\r\n\r\n//https://etherscan.io/address/0xCF5609B003B2776699EEA1233F7C82D5695CC9AA",
  "sourcePath": "C:\\Users\\Thomas\\Desktop\\ETH Talk\\ETH Demo Basic\\contracts\\GameScore.sol",
  "compiler": {
    "name": "solc",
    "version": "0.4.19+commit.c4cbbb05.Emscripten.clang"
  },
  "schemaVersion": "1.0.1",
  "updatedAt": "2018-02-16T00:31:04.609Z"
}