{
  "contractName": "HelloWorld",
  "abi": [
    {
      "constant": false,
      "inputs": [],
      "name": "sayHello",
      "outputs": [
        {
          "name": "",
          "type": "string"
        }
      ],
      "payable": false,
      "stateMutability": "nonpayable",
      "type": "function"
    }
  ],
  "bytecode": "0x6060604052341561000f57600080fd5b6101578061001e6000396000f300606060405260043610610041576000357c0100000000000000000000000000000000000000000000000000000000900463ffffffff168063ef5fb05b14610046575b600080fd5b341561005157600080fd5b6100596100d4565b6040518080602001828103825283818151815260200191508051906020019080838360005b8381101561009957808201518184015260208101905061007e565b50505050905090810190601f1680156100c65780820380516001836020036101000a031916815260200191505b509250505060405180910390f35b6100dc610117565b6040805190810160405280600b81526020017f48656c6c6f20776f726c64000000000000000000000000000000000000000000815250905090565b6020604051908101604052806000815250905600a165627a7a72305820dd6343ee7654dcf004c597afb483d2e8b3aaea9549b3bacddc4a8aee5c6f40680029",
  "source": "pragma solidity ^0.4.4;\r\ncontract HelloWorld {\r\n    function sayHello() returns (string) {\r\n        return (\"Hello world\");\r\n    }\r\n}",
  "sourcePath": "C:\\Users\\Thomas\\Desktop\\ETH Talk\\ETH Demo Basic\\contracts\\helloworld.sol",
  "compiler": {
    "name": "solc",
    "version": "0.4.19+commit.c4cbbb05.Emscripten.clang"
  },
  "schemaVersion": "1.0.1",
  "updatedAt": "2018-02-16T00:31:04.608Z"
}